{
  "_format": "hh-sol-artifact-1",
  "contractName": "Campaign",
  "sourceName": "contracts/Campaign.sol",
  "abi": [
    {
      "inputs": [
        {
          "internalType": "uint256",
          "name": "minimum",
          "type": "uint256"
        },
        {
          "internalType": "address",
          "name": "creator",
          "type": "address"
        },
        {
          "internalType": "string",
          "name": "name",
          "type": "string"
        },
        {
          "internalType": "string",
          "name": "description",
          "type": "string"
        },
        {
          "internalType": "string",
          "name": "image",
          "type": "string"
        },
        {
          "internalType": "uint256",
          "name": "target",
          "type": "uint256"
        }
      ],
      "stateMutability": "nonpayable",
      "type": "constructor"
    },
    {
      "inputs": [
        {
          "internalType": "uint256",
          "name": "index",
          "type": "uint256"
        }
      ],
      "name": "approveRequest",
      "outputs": [],
      "stateMutability": "nonpayable",
      "type": "function"
    },
    {
      "inputs": [
        {
          "internalType": "address",
          "name": "",
          "type": "address"
        }
      ],
      "name": "approvers",
      "outputs": [
        {
          "internalType": "bool",
          "name": "",
          "type": "bool"
        }
      ],
      "stateMutability": "view",
      "type": "function"
    },
    {
      "inputs": [],
      "name": "approversCount",
      "outputs": [
        {
          "internalType": "uint256",
          "name": "",
          "type": "uint256"
        }
      ],
      "stateMutability": "view",
      "type": "function"
    },
    {
      "inputs": [],
      "name": "campaignDescription",
      "outputs": [
        {
          "internalType": "string",
          "name": "",
          "type": "string"
        }
      ],
      "stateMutability": "view",
      "type": "function"
    },
    {
      "inputs": [],
      "name": "campaignName",
      "outputs": [
        {
          "internalType": "string",
          "name": "",
          "type": "string"
        }
      ],
      "stateMutability": "view",
      "type": "function"
    },
    {
      "inputs": [],
      "name": "contribute",
      "outputs": [],
      "stateMutability": "payable",
      "type": "function"
    },
    {
      "inputs": [
        {
          "internalType": "uint256",
          "name": "",
          "type": "uint256"
        }
      ],
      "name": "contributors",
      "outputs": [
        {
          "internalType": "address",
          "name": "",
          "type": "address"
        }
      ],
      "stateMutability": "view",
      "type": "function"
    },
    {
      "inputs": [
        {
          "internalType": "string",
          "name": "description",
          "type": "string"
        },
        {
          "internalType": "uint256",
          "name": "value",
          "type": "uint256"
        },
        {
          "internalType": "address",
          "name": "recipient",
          "type": "address"
        }
      ],
      "name": "createRequest",
      "outputs": [],
      "stateMutability": "nonpayable",
      "type": "function"
    },
    {
      "inputs": [
        {
          "internalType": "uint256",
          "name": "index",
          "type": "uint256"
        }
      ],
      "name": "finalizeRequest",
      "outputs": [],
      "stateMutability": "nonpayable",
      "type": "function"
    },
    {
      "inputs": [],
      "name": "getRequestsCount",
      "outputs": [
        {
          "internalType": "uint256",
          "name": "",
          "type": "uint256"
        }
      ],
      "stateMutability": "view",
      "type": "function"
    },
    {
      "inputs": [],
      "name": "getSummary",
      "outputs": [
        {
          "internalType": "uint256",
          "name": "",
          "type": "uint256"
        },
        {
          "internalType": "uint256",
          "name": "",
          "type": "uint256"
        },
        {
          "internalType": "uint256",
          "name": "",
          "type": "uint256"
        },
        {
          "internalType": "uint256",
          "name": "",
          "type": "uint256"
        },
        {
          "internalType": "address",
          "name": "",
          "type": "address"
        },
        {
          "internalType": "string",
          "name": "",
          "type": "string"
        },
        {
          "internalType": "string",
          "name": "",
          "type": "string"
        },
        {
          "internalType": "string",
          "name": "",
          "type": "string"
        },
        {
          "internalType": "uint256",
          "name": "",
          "type": "uint256"
        }
      ],
      "stateMutability": "view",
      "type": "function"
    },
    {
      "inputs": [],
      "name": "imageUrl",
      "outputs": [
        {
          "internalType": "string",
          "name": "",
          "type": "string"
        }
      ],
      "stateMutability": "view",
      "type": "function"
    },
    {
      "inputs": [],
      "name": "manager",
      "outputs": [
        {
          "internalType": "address",
          "name": "",
          "type": "address"
        }
      ],
      "stateMutability": "view",
      "type": "function"
    },
    {
      "inputs": [],
      "name": "minimumContribution",
      "outputs": [
        {
          "internalType": "uint256",
          "name": "",
          "type": "uint256"
        }
      ],
      "stateMutability": "view",
      "type": "function"
    },
    {
      "inputs": [
        {
          "internalType": "uint256",
          "name": "",
          "type": "uint256"
        }
      ],
      "name": "requests",
      "outputs": [
        {
          "internalType": "string",
          "name": "description",
          "type": "string"
        },
        {
          "internalType": "uint256",
          "name": "value",
          "type": "uint256"
        },
        {
          "internalType": "address",
          "name": "recipient",
          "type": "address"
        },
        {
          "internalType": "bool",
          "name": "complete",
          "type": "bool"
        },
        {
          "internalType": "uint256",
          "name": "approvalCount",
          "type": "uint256"
        }
      ],
      "stateMutability": "view",
      "type": "function"
    },
    {
      "inputs": [],
      "name": "targetToAchieve",
      "outputs": [
        {
          "internalType": "uint256",
          "name": "",
          "type": "uint256"
        }
      ],
      "stateMutability": "view",
      "type": "function"
    }
  ],
  "bytecode": "0x60806040523480156200001157600080fd5b5060405162001fc438038062001fc48339818101604052810190620000379190620003ca565b84600160006101000a81548173ffffffffffffffffffffffffffffffffffffffff021916908373ffffffffffffffffffffffffffffffffffffffff16021790555085600281905550836003908051906020019062000097929190620000dd565b508260049080519060200190620000b0929190620000dd565b508160059080519060200190620000c9929190620000dd565b508060068190555050505050505062000528565b828054620000eb90620004f2565b90600052602060002090601f0160209004810192826200010f57600085556200015b565b82601f106200012a57805160ff19168380011785556200015b565b828001600101855582156200015b579182015b828111156200015a5782518255916020019190600101906200013d565b5b5090506200016a91906200016e565b5090565b5b80821115620001895760008160009055506001016200016f565b5090565b6000604051905090565b600080fd5b600080fd5b6000819050919050565b620001b681620001a1565b8114620001c257600080fd5b50565b600081519050620001d681620001ab565b92915050565b600073ffffffffffffffffffffffffffffffffffffffff82169050919050565b60006200020982620001dc565b9050919050565b6200021b81620001fc565b81146200022757600080fd5b50565b6000815190506200023b8162000210565b92915050565b600080fd5b600080fd5b6000601f19601f8301169050919050565b7f4e487b7100000000000000000000000000000000000000000000000000000000600052604160045260246000fd5b62000296826200024b565b810181811067ffffffffffffffff82111715620002b857620002b76200025c565b5b80604052505050565b6000620002cd6200018d565b9050620002db82826200028b565b919050565b600067ffffffffffffffff821115620002fe57620002fd6200025c565b5b62000309826200024b565b9050602081019050919050565b60005b838110156200033657808201518184015260208101905062000319565b8381111562000346576000848401525b50505050565b6000620003636200035d84620002e0565b620002c1565b90508281526020810184848401111562000382576200038162000246565b5b6200038f84828562000316565b509392505050565b600082601f830112620003af57620003ae62000241565b5b8151620003c18482602086016200034c565b91505092915050565b60008060008060008060c08789031215620003ea57620003e962000197565b5b6000620003fa89828a01620001c5565b96505060206200040d89828a016200022a565b955050604087015167ffffffffffffffff8111156200043157620004306200019c565b5b6200043f89828a0162000397565b945050606087015167ffffffffffffffff8111156200046357620004626200019c565b5b6200047189828a0162000397565b935050608087015167ffffffffffffffff8111156200049557620004946200019c565b5b620004a389828a0162000397565b92505060a0620004b689828a01620001c5565b9150509295509295509295565b7f4e487b7100000000000000000000000000000000000000000000000000000000600052602260045260246000fd5b600060028204905060018216806200050b57607f821691505b60208210811415620005225762000521620004c3565b5b50919050565b611a8c80620005386000396000f3fe6080604052600436106100f35760003560e01c806381d12c581161008a578063aba8315011610059578063aba831501461033a578063b2a87fc314610365578063d7bb99ba14610390578063d7d1bbdb1461039a576100f3565b806381d12c581461027a57806382fde093146102bb5780638a9cfd55146102e6578063937e09b11461030f576100f3565b80633410452a116100c65780633410452a146101b45780633cb5d100146101df5780634051ddac1461021c578063481c6a751461024f576100f3565b806303441006146100f85780630724fda9146101215780630a1443911461014c578063110842cb14610189575b600080fd5b34801561010457600080fd5b5061011f600480360381019061011a9190611131565b6103c3565b005b34801561012d57600080fd5b5061013661062d565b60405161014391906111f7565b60405180910390f35b34801561015857600080fd5b50610173600480360381019061016e9190611277565b6106bb565b60405161018091906112bf565b60405180910390f35b34801561019557600080fd5b5061019e6106db565b6040516101ab91906111f7565b60405180910390f35b3480156101c057600080fd5b506101c9610769565b6040516101d691906112e9565b60405180910390f35b3480156101eb57600080fd5b5061020660048036038101906102019190611131565b610775565b6040516102139190611313565b60405180910390f35b34801561022857600080fd5b506102316107b4565b6040516102469998979695949392919061132e565b60405180910390f35b34801561025b57600080fd5b506102646109bd565b6040516102719190611313565b60405180910390f35b34801561028657600080fd5b506102a1600480360381019061029c9190611131565b6109e3565b6040516102b29594939291906113d0565b60405180910390f35b3480156102c757600080fd5b506102d0610ade565b6040516102dd91906112e9565b60405180910390f35b3480156102f257600080fd5b5061030d6004803603810190610308919061155f565b610ae4565b005b34801561031b57600080fd5b50610324610c29565b60405161033191906112e9565b60405180910390f35b34801561034657600080fd5b5061034f610c2f565b60405161035c91906111f7565b60405180910390f35b34801561037157600080fd5b5061037a610cbd565b60405161038791906112e9565b60405180910390f35b610398610cc3565b005b3480156103a657600080fd5b506103c160048036038101906103bc9190611131565b610ddc565b005b600160009054906101000a900473ffffffffffffffffffffffffffffffffffffffff1673ffffffffffffffffffffffffffffffffffffffff163373ffffffffffffffffffffffffffffffffffffffff1614610453576040517f08c379a000000000000000000000000000000000000000000000000000000000815260040161044a9061161a565b60405180910390fd5b60026009546104629190611698565b60008281548110610476576104756116c9565b5b906000526020600020906005020160030154116104c8576040517f08c379a00000000000000000000000000000000000000000000000000000000081526004016104bf9061176a565b60405180910390fd5b600081815481106104dc576104db6116c9565b5b906000526020600020906005020160020160149054906101000a900460ff161561053b576040517f08c379a0000000000000000000000000000000000000000000000000000000008152600401610532906117d6565b60405180910390fd5b6000818154811061054f5761054e6116c9565b5b906000526020600020906005020160020160009054906101000a900473ffffffffffffffffffffffffffffffffffffffff1673ffffffffffffffffffffffffffffffffffffffff166108fc600083815481106105ae576105ad6116c9565b5b9060005260206000209060050201600101549081150290604051600060405180830381858888f193505050501580156105eb573d6000803e3d6000fd5b50600160008281548110610602576106016116c9565b5b906000526020600020906005020160020160146101000a81548160ff02191690831515021790555050565b6003805461063a90611825565b80601f016020809104026020016040519081016040528092919081815260200182805461066690611825565b80156106b35780601f10610688576101008083540402835291602001916106b3565b820191906000526020600020905b81548152906001019060200180831161069657829003601f168201915b505050505081565b60086020528060005260406000206000915054906101000a900460ff1681565b600480546106e890611825565b80601f016020809104026020016040519081016040528092919081815260200182805461071490611825565b80156107615780601f1061073657610100808354040283529160200191610761565b820191906000526020600020905b81548152906001019060200180831161074457829003601f168201915b505050505081565b60008080549050905090565b6007818154811061078557600080fd5b906000526020600020016000915054906101000a900473ffffffffffffffffffffffffffffffffffffffff1681565b60008060008060006060806060600060025447600080549050600954600160009054906101000a900473ffffffffffffffffffffffffffffffffffffffff1660036004600560065483805461080890611825565b80601f016020809104026020016040519081016040528092919081815260200182805461083490611825565b80156108815780601f1061085657610100808354040283529160200191610881565b820191906000526020600020905b81548152906001019060200180831161086457829003601f168201915b5050505050935082805461089490611825565b80601f01602080910402602001604051908101604052809291908181526020018280546108c090611825565b801561090d5780601f106108e25761010080835404028352916020019161090d565b820191906000526020600020905b8154815290600101906020018083116108f057829003601f168201915b5050505050925081805461092090611825565b80601f016020809104026020016040519081016040528092919081815260200182805461094c90611825565b80156109995780601f1061096e57610100808354040283529160200191610999565b820191906000526020600020905b81548152906001019060200180831161097c57829003601f168201915b50505050509150985098509850985098509850985098509850909192939495969798565b600160009054906101000a900473ffffffffffffffffffffffffffffffffffffffff1681565b600081815481106109f357600080fd5b9060005260206000209060050201600091509050806000018054610a1690611825565b80601f0160208091040260200160405190810160405280929190818152602001828054610a4290611825565b8015610a8f5780601f10610a6457610100808354040283529160200191610a8f565b820191906000526020600020905b815481529060010190602001808311610a7257829003601f168201915b5050505050908060010154908060020160009054906101000a900473ffffffffffffffffffffffffffffffffffffffff16908060020160149054906101000a900460ff16908060030154905085565b60095481565b600160009054906101000a900473ffffffffffffffffffffffffffffffffffffffff1673ffffffffffffffffffffffffffffffffffffffff163373ffffffffffffffffffffffffffffffffffffffff1614610b74576040517f08c379a0000000000000000000000000000000000000000000000000000000008152600401610b6b9061161a565b60405180910390fd5b600080600181600181540180825580915050039060005260206000209060050201905083816000019080519060200190610baf929190611044565b50828160010181905550818160020160006101000a81548173ffffffffffffffffffffffffffffffffffffffff021916908373ffffffffffffffffffffffffffffffffffffffff16021790555060008160020160146101000a81548160ff0219169083151502179055506000816003018190555050505050565b60025481565b60058054610c3c90611825565b80601f0160208091040260200160405190810160405280929190818152602001828054610c6890611825565b8015610cb55780601f10610c8a57610100808354040283529160200191610cb5565b820191906000526020600020905b815481529060010190602001808311610c9857829003601f168201915b505050505081565b60065481565b6002543411610d07576040517f08c379a0000000000000000000000000000000000000000000000000000000008152600401610cfe906118c9565b60405180910390fd5b6007339080600181540180825580915050600190039060005260206000200160009091909190916101000a81548173ffffffffffffffffffffffffffffffffffffffff021916908373ffffffffffffffffffffffffffffffffffffffff1602179055506001600860003373ffffffffffffffffffffffffffffffffffffffff1673ffffffffffffffffffffffffffffffffffffffff16815260200190815260200160002060006101000a81548160ff02191690831515021790555060096000815480929190610dd5906118e9565b9190505550565b600860003373ffffffffffffffffffffffffffffffffffffffff1673ffffffffffffffffffffffffffffffffffffffff16815260200190815260200160002060009054906101000a900460ff16610e68576040517f08c379a0000000000000000000000000000000000000000000000000000000008152600401610e5f906119a4565b60405180910390fd5b60008181548110610e7c57610e7b6116c9565b5b906000526020600020906005020160020160149054906101000a900460ff1615610edb576040517f08c379a0000000000000000000000000000000000000000000000000000000008152600401610ed2906117d6565b60405180910390fd5b60008181548110610eef57610eee6116c9565b5b906000526020600020906005020160040160003373ffffffffffffffffffffffffffffffffffffffff1673ffffffffffffffffffffffffffffffffffffffff16815260200190815260200160002060009054906101000a900460ff1615610f8b576040517f08c379a0000000000000000000000000000000000000000000000000000000008152600401610f8290611a36565b60405180910390fd5b600160008281548110610fa157610fa06116c9565b5b906000526020600020906005020160040160003373ffffffffffffffffffffffffffffffffffffffff1673ffffffffffffffffffffffffffffffffffffffff16815260200190815260200160002060006101000a81548160ff0219169083151502179055506000818154811061101a576110196116c9565b5b9060005260206000209060050201600301600081548092919061103c906118e9565b919050555050565b82805461105090611825565b90600052602060002090601f01602090048101928261107257600085556110b9565b82601f1061108b57805160ff19168380011785556110b9565b828001600101855582156110b9579182015b828111156110b857825182559160200191906001019061109d565b5b5090506110c691906110ca565b5090565b5b808211156110e35760008160009055506001016110cb565b5090565b6000604051905090565b600080fd5b600080fd5b6000819050919050565b61110e816110fb565b811461111957600080fd5b50565b60008135905061112b81611105565b92915050565b600060208284031215611147576111466110f1565b5b60006111558482850161111c565b91505092915050565b600081519050919050565b600082825260208201905092915050565b60005b8381101561119857808201518184015260208101905061117d565b838111156111a7576000848401525b50505050565b6000601f19601f8301169050919050565b60006111c98261115e565b6111d38185611169565b93506111e381856020860161117a565b6111ec816111ad565b840191505092915050565b6000602082019050818103600083015261121181846111be565b905092915050565b600073ffffffffffffffffffffffffffffffffffffffff82169050919050565b600061124482611219565b9050919050565b61125481611239565b811461125f57600080fd5b50565b6000813590506112718161124b565b92915050565b60006020828403121561128d5761128c6110f1565b5b600061129b84828501611262565b91505092915050565b60008115159050919050565b6112b9816112a4565b82525050565b60006020820190506112d460008301846112b0565b92915050565b6112e3816110fb565b82525050565b60006020820190506112fe60008301846112da565b92915050565b61130d81611239565b82525050565b60006020820190506113286000830184611304565b92915050565b600061012082019050611344600083018c6112da565b611351602083018b6112da565b61135e604083018a6112da565b61136b60608301896112da565b6113786080830188611304565b81810360a083015261138a81876111be565b905081810360c083015261139e81866111be565b905081810360e08301526113b281856111be565b90506113c26101008301846112da565b9a9950505050505050505050565b600060a08201905081810360008301526113ea81886111be565b90506113f960208301876112da565b6114066040830186611304565b61141360608301856112b0565b61142060808301846112da565b9695505050505050565b600080fd5b600080fd5b7f4e487b7100000000000000000000000000000000000000000000000000000000600052604160045260246000fd5b61146c826111ad565b810181811067ffffffffffffffff8211171561148b5761148a611434565b5b80604052505050565b600061149e6110e7565b90506114aa8282611463565b919050565b600067ffffffffffffffff8211156114ca576114c9611434565b5b6114d3826111ad565b9050602081019050919050565b82818337600083830152505050565b60006115026114fd846114af565b611494565b90508281526020810184848401111561151e5761151d61142f565b5b6115298482856114e0565b509392505050565b600082601f8301126115465761154561142a565b5b81356115568482602086016114ef565b91505092915050565b600080600060608486031215611578576115776110f1565b5b600084013567ffffffffffffffff811115611596576115956110f6565b5b6115a286828701611531565b93505060206115b38682870161111c565b92505060406115c486828701611262565b9150509250925092565b7f43616c6c6572206973206e6f7420746865206d616e6167657200000000000000600082015250565b6000611604601983611169565b915061160f826115ce565b602082019050919050565b60006020820190508181036000830152611633816115f7565b9050919050565b7f4e487b7100000000000000000000000000000000000000000000000000000000600052601260045260246000fd5b7f4e487b7100000000000000000000000000000000000000000000000000000000600052601160045260246000fd5b60006116a3826110fb565b91506116ae836110fb565b9250826116be576116bd61163a565b5b828204905092915050565b7f4e487b7100000000000000000000000000000000000000000000000000000000600052603260045260246000fd5b7f4e6f7420656e6f75676820617070726f76616c7320666f722066696e616c697a60008201527f6174696f6e000000000000000000000000000000000000000000000000000000602082015250565b6000611754602583611169565b915061175f826116f8565b604082019050919050565b6000602082019050818103600083015261178381611747565b9050919050565b7f5265717565737420697320616c726561647920636f6d706c6574656400000000600082015250565b60006117c0601c83611169565b91506117cb8261178a565b602082019050919050565b600060208201905081810360008301526117ef816117b3565b9050919050565b7f4e487b7100000000000000000000000000000000000000000000000000000000600052602260045260246000fd5b6000600282049050600182168061183d57607f821691505b60208210811415611851576118506117f6565b5b50919050565b7f436f6e747269627574696f6e20616d6f756e74206973206c657373207468616e60008201527f206d696e696d756d207265717569726564000000000000000000000000000000602082015250565b60006118b3603183611169565b91506118be82611857565b604082019050919050565b600060208201905081810360008301526118e2816118a6565b9050919050565b60006118f4826110fb565b91507fffffffffffffffffffffffffffffffffffffffffffffffffffffffffffffffff82141561192757611926611669565b5b600182019050919050565b7f4f6e6c7920617070726f766572732063616e20617070726f766520726571756560008201527f7374730000000000000000000000000000000000000000000000000000000000602082015250565b600061198e602383611169565b915061199982611932565b604082019050919050565b600060208201905081810360008301526119bd81611981565b9050919050565b7f5265717565737420616c726561647920617070726f766564206279207468697360008201527f20617070726f7665720000000000000000000000000000000000000000000000602082015250565b6000611a20602983611169565b9150611a2b826119c4565b604082019050919050565b60006020820190508181036000830152611a4f81611a13565b905091905056fea2646970667358221220925e96cedf49d2f8d838b9e77ad99e0a4809a6f3ccee753831f8cf04591602b164736f6c63430008090033",
  "linkReferences": {},
  "deployedLinkReferences": {}
}